{
  "_format": "hh-sol-artifact-1",
  "contractName": "EtherWallet",
  "sourceName": "contracts/EtherWallet.sol",
  "abi": [
    {
      "inputs": [],
      "stateMutability": "nonpayable",
      "type": "constructor"
    },
    {
      "anonymous": false,
      "inputs": [
        {
          "indexed": true,
          "internalType": "bool",
          "name": "success",
          "type": "bool"
        },
        {
          "indexed": true,
          "internalType": "address",
          "name": "receiver",
          "type": "address"
        },
        {
          "indexed": true,
          "internalType": "uint256",
          "name": "amount",
          "type": "uint256"
        }
      ],
      "name": "withdrawResult",
      "type": "event"
    },
    {
      "inputs": [],
      "name": "balanceOf",
      "outputs": [
        {
          "internalType": "uint256",
          "name": "",
          "type": "uint256"
        }
      ],
      "stateMutability": "view",
      "type": "function"
    },
    {
      "inputs": [],
      "name": "deposit",
      "outputs": [],
      "stateMutability": "payable",
      "type": "function"
    },
    {
      "inputs": [],
      "name": "owner",
      "outputs": [
        {
          "internalType": "address payable",
          "name": "",
          "type": "address"
        }
      ],
      "stateMutability": "view",
      "type": "function"
    },
    {
      "inputs": [
        {
          "internalType": "address payable",
          "name": "_receiver",
          "type": "address"
        },
        {
          "internalType": "uint256",
          "name": "_amount",
          "type": "uint256"
        }
      ],
      "name": "withdraw",
      "outputs": [],
      "stateMutability": "nonpayable",
      "type": "function"
    }
  ],
  "bytecode": "0x608060405234801561001057600080fd5b5061002b67e65960ca92527b3360c01b61008a60201b60201c565b6100456718b91002f73a09dd60c01b61008a60201b60201c565b336000806101000a81548173ffffffffffffffffffffffffffffffffffffffff021916908373ffffffffffffffffffffffffffffffffffffffff16021790555061008d565b50565b6107868061009c6000396000f3fe60806040526004361061003f5760003560e01c8063722713f7146100445780638da5cb5b1461006f578063d0e30db01461009a578063f3fef3a3146100a4575b600080fd5b34801561005057600080fd5b506100596100cd565b60405161006691906104cb565b60405180910390f35b34801561007b57600080fd5b50610084610111565b6040516100919190610527565b60405180910390f35b6100a2610135565b005b3480156100b057600080fd5b506100cb60048036038101906100c6919061059f565b61014b565b005b60006100e3672bd2c19ae3ce0fbb60c01b6104af565b6100f76713f588f708cdb77460c01b6104af565b61010b67852f69bd8cd776c260c01b6104af565b47905090565b60008054906101000a900473ffffffffffffffffffffffffffffffffffffffff1681565b61014967b9b79f86ccbc14b060c01b6104af565b565b61015f67cc28e50ec8bfdc9c60c01b6104af565b61017367f89672b34b083ba760c01b6104af565b61018767abd64b656f72314460c01b6104af565b61019b674ef30c068a7bbed960c01b6104af565b6101af67034ff334b5e2747060c01b6104af565b60008054906101000a900473ffffffffffffffffffffffffffffffffffffffff1673ffffffffffffffffffffffffffffffffffffffff163373ffffffffffffffffffffffffffffffffffffffff161461023d576040517f08c379a00000000000000000000000000000000000000000000000000000000081526004016102349061063c565b60405180910390fd5b610251671d1a067be4fbf53460c01b6104af565b6102656799d5ff792b1a1d8260c01b6104af565b610279671fd7018183d701d360c01b6104af565b61028d6770fb9af9aa3acd1860c01b6104af565b6102a16706f1f26452cb07d360c01b6104af565b6102b56722e7125d63eb661f60c01b6104af565b6102c967d0da2f823052c98060c01b6104af565b8047101561030c576040517f08c379a0000000000000000000000000000000000000000000000000000000008152600401610303906106a8565b60405180910390fd5b61032067ad4abbbe3543bdd660c01b6104af565b61033467ecb13ff7ce84819660c01b6104af565b61034867f3b8824550418de060c01b6104af565b6000808373ffffffffffffffffffffffffffffffffffffffff16836040516024016040516020818303038152906040527f1dcc85ae000000000000000000000000000000000000000000000000000000007bffffffffffffffffffffffffffffffffffffffffffffffffffffffff19166020820180517bffffffffffffffffffffffffffffffffffffffffffffffffffffffff83818316178352505050506040516103f39190610739565b60006040518083038185875af1925050503d8060008114610430576040519150601f19603f3d011682016040523d82523d6000602084013e610435565b606091505b509150915061044e676527d87fa22ae4ef60c01b6104af565b6104626749cbe338dca9b2e260c01b6104af565b828473ffffffffffffffffffffffffffffffffffffffff168315157fe168cd4b550adee5fbc0e1a89b259914062d1f11bbdcbed2be6e8d8269ace91260405160405180910390a450505050565b50565b6000819050919050565b6104c5816104b2565b82525050565b60006020820190506104e060008301846104bc565b92915050565b600073ffffffffffffffffffffffffffffffffffffffff82169050919050565b6000610511826104e6565b9050919050565b61052181610506565b82525050565b600060208201905061053c6000830184610518565b92915050565b600080fd5b61055081610506565b811461055b57600080fd5b50565b60008135905061056d81610547565b92915050565b61057c816104b2565b811461058757600080fd5b50565b60008135905061059981610573565b92915050565b600080604083850312156105b6576105b5610542565b5b60006105c48582860161055e565b92505060206105d58582860161058a565b9150509250929050565b600082825260208201905092915050565b7f53656e646572206973206e6f7420746865206f776e6572000000000000000000600082015250565b60006106266017836105df565b9150610631826105f0565b602082019050919050565b6000602082019050818103600083015261065581610619565b9050919050565b7f4e6f7420656e6f7567682066756e647300000000000000000000000000000000600082015250565b60006106926010836105df565b915061069d8261065c565b602082019050919050565b600060208201905081810360008301526106c181610685565b9050919050565b600081519050919050565b600081905092915050565b60005b838110156106fc5780820151818401526020810190506106e1565b60008484015250505050565b6000610713826106c8565b61071d81856106d3565b935061072d8185602086016106de565b80840191505092915050565b60006107458284610708565b91508190509291505056fea26469706673582212205ef5bed15db67781637b606798bb37f260bd6fd346e5d7acfc3330142927e58764736f6c63430008130033",
  "linkReferences": {},
  "deployedLinkReferences": {}
}