{
  "_format": "hh-sol-artifact-1",
  "contractName": "EtherWallet",
  "sourceName": "contracts/EtherWallet.sol",
  "abi": [
    {
      "inputs": [],
      "stateMutability": "nonpayable",
      "type": "constructor"
    },
    {
      "anonymous": false,
      "inputs": [
        {
          "indexed": true,
          "internalType": "bool",
          "name": "success",
          "type": "bool"
        },
        {
          "indexed": true,
          "internalType": "address",
          "name": "receiver",
          "type": "address"
        },
        {
          "indexed": true,
          "internalType": "uint256",
          "name": "amount",
          "type": "uint256"
        }
      ],
      "name": "withdrawResult",
      "type": "event"
    },
    {
      "stateMutability": "payable",
      "type": "fallback"
    },
    {
      "inputs": [],
      "name": "balanceOf",
      "outputs": [
        {
          "internalType": "uint256",
          "name": "",
          "type": "uint256"
        }
      ],
      "stateMutability": "view",
      "type": "function"
    },
    {
      "inputs": [],
      "name": "deposit",
      "outputs": [],
      "stateMutability": "payable",
      "type": "function"
    },
    {
      "inputs": [],
      "name": "owner",
      "outputs": [
        {
          "internalType": "address payable",
          "name": "",
          "type": "address"
        }
      ],
      "stateMutability": "view",
      "type": "function"
    },
    {
      "inputs": [
        {
          "internalType": "address payable",
          "name": "_receiver",
          "type": "address"
        },
        {
          "internalType": "uint256",
          "name": "_amount",
          "type": "uint256"
        }
      ],
      "name": "withdraw",
      "outputs": [],
      "stateMutability": "nonpayable",
      "type": "function"
    },
    {
      "stateMutability": "payable",
      "type": "receive"
    }
  ],
  "bytecode": "0x608060405234801561001057600080fd5b50600080546001600160a01b031916331790556102c8806100326000396000f3fe6080604052600436106100405760003560e01c8063722713f7146100495780638da5cb5b14610069578063d0e30db014610047578063f3fef3a3146100a157005b3661004757005b005b34801561005557600080fd5b506040514781526020015b60405180910390f35b34801561007557600080fd5b50600054610089906001600160a01b031681565b6040516001600160a01b039091168152602001610060565b3480156100ad57600080fd5b506100476100bc36600461022b565b6000546001600160a01b0316331461011b5760405162461bcd60e51b815260206004820152601760248201527f53656e646572206973206e6f7420746865206f776e657200000000000000000060448201526064015b60405180910390fd5b8047101561015e5760405162461bcd60e51b815260206004820152601060248201526f4e6f7420656e6f7567682066756e647360801b6044820152606401610112565b60408051600481526024810182526020810180516001600160e01b0316630ee642d760e11b179052905160009182916001600160a01b0386169185916101a49190610263565b60006040518083038185875af1925050503d80600081146101e1576040519150601f19603f3d011682016040523d82523d6000602084013e6101e6565b606091505b509150915082846001600160a01b03168315157fe168cd4b550adee5fbc0e1a89b259914062d1f11bbdcbed2be6e8d8269ace91260405160405180910390a450505050565b6000806040838503121561023e57600080fd5b82356001600160a01b038116811461025557600080fd5b946020939093013593505050565b6000825160005b81811015610284576020818601810151858301520161026a565b50600092019182525091905056fea2646970667358221220b54c6130d5e7da3e0ad83f709ef64776d74ae52b85d023bda4e72998e6c8ac5f64736f6c63430008130033",
  "linkReferences": {},
  "deployedLinkReferences": {}
}